KORE001     TYPE-A   *IND0000001*MME DUPONT SOPHIE                CALLE MAYOR 15                   28001 MADRID                                                     99999ESPAGNE                    01 JANVIER 2024 TYPE-A                         00 00 00 00 00      INDIVIDUS NON RESIDENTS                                                                                                                                                         5510210101
KORE001     TYPE-A   *IND0000002*MME BERNARD ANNE                 15 RUE DE LA PAIX                1000 BRUXELLES                                                   99999BELGIQUE                   01 JANVIER 2024 TYPE-A                         00 00 00 00 00      INDIVIDUS NON RESIDENTS                                                                                                                                                         6520310202
KORE001     TYPE-A   *IND0000003*M   LEROY MARC                   VIA ROMA 8                       00100 ROME                                                       99999ITALIE                     01 JANVIER 2024 TYPE-A                         00 00 00 00 00      INDIVIDUS NON RESIDENTS                                                                                                                                                         5530410303
KORE001     TYPE-A   *IND0000004*MME MOREAU ISABELLE              HAUPTSTRASSE 22                  10115 BERLIN                                                     99999ALLEMAGNE                  01 JANVIER 2024 TYPE-A                         00 00 00 00 00      INDIVIDUS NON RESIDENTS                                                                                                                                                         6540510404
KORE001     TYPE-A   *IND0000005*MME SIMON JULIE                  RUA DA LIBERDADE 45              1200 LISBONNE                                                    99999PORTUGAL                   01 JANVIER 2024 TYPE-A                         00 00 00 00 00      INDIVIDUS NON RESIDENTS                                                                                                                                                         5550610505
KORE001     TYPE-A   *IND0000006*M   LEFEBVRE NICOLAS             12 AVENUE HASSAN II              20000 CASABLANCA                                                 99999MAROC                      01 JANVIER 2024 TYPE-A                         00 00 00 00 00      INDIVIDUS NON RESIDENTS                                                                                                                                                         6560710606
KORE001     TYPE-A   *IND0000007*MME THOMAS NATHALIE              5 RUE DIDOUCHE MOURAD            16000 ALGER                                                      99999ALGERIE                    01 JANVIER 2024 TYPE-A                         00 00 00 00 00      INDIVIDUS NON RESIDENTS                                                                                                                                                         5570810707
KORE001     TYPE-A   *IND0000008*MME RICHARD HELENE               AVENUE BOURGUIBA 33              1000 TUNIS                                                       99999TUNISIE                    01 JANVIER 2024 TYPE-A                         00 00 00 00 00      INDIVIDUS NON RESIDENTS                                                                                                                                                         6580910808
KORE001     TYPE-A   *IND0000009*M   PETIT ALAIN                  456 RUE SAINTE CATHERINE         MONTREAL QC H3B 1B2                                              99999CANADA                     01 JANVIER 2024 TYPE-A                         00 00 00 00 00      INDIVIDUS NON RESIDENTS                                                                                                                                                         5591010909
KORE001     TYPE-A   *IND0000010*MME DURAND FLORENCE              123 MAIN STREET                  NEW YORK NY 10001                                                99999ETATS UNIS                 01 JANVIER 2024 TYPE-A                         00 00 00 00 00      INDIVIDUS NON RESIDENTS                                                                                                                                                         6601111010
KORE001     TYPE-A   *IND0000011*MME LAMBERT BRIGITTE             12 RUE DES ALPES                 1200 GENEVE                                                      99999SUISSE                     01 JANVIER 2024 TYPE-A                         00 00 00 00 00      INDIVIDUS NON RESIDENTS                                                                                                                                                         5611211111
KORE001     TYPE-A   *IND0000012*M   FONTAINE HENRI               CALLE MAYOR 15                   28001 MADRID                                                     99999ESPAGNE                    01 JANVIER 2024 TYPE-A                         00 00 00 00 00      INDIVIDUS NON RESIDENTS                                                                                                                                                         6620111212
KORE001     TYPE-A   *IND0000013*MME ROUSSEAU FRANCOISE           15 RUE DE LA PAIX                1000 BRUXELLES                                                   99999BELGIQUE                   01 JANVIER 2024 TYPE-A                         00 00 00 00 00      INDIVIDUS NON RESIDENTS                                                                                                                                                         5630211313
KORE001     TYPE-A   *IND0000014*MME VINCENT MARTINE              VIA ROMA 8                       00100 ROME                                                       99999ITALIE                     01 JANVIER 2024 TYPE-A                         00 00 00 00 00      INDIVIDUS NON RESIDENTS                                                                                                                                                         6640311414
KORE001     TYPE-A   *IND0000015*M   GAUTHIER FRANCOIS            HAUPTSTRASSE 22                  10115 BERLIN                                                     99999ALLEMAGNE                  01 JANVIER 2024 TYPE-A                         00 00 00 00 00      INDIVIDUS NON RESIDENTS                                                                                                                                                         5650411515
KORE001     TYPE-A   *IND0000016*MME MOREL PATRICIA               RUA DA LIBERDADE 45              1200 LISBONNE                                                    99999PORTUGAL                   01 JANVIER 2024 TYPE-A                         00 00 00 00 00      INDIVIDUS NON RESIDENTS                                                                                                                                                         6660511616
KORE001     TYPE-A   *IND0000017*MME GIRARD SANDRINE              12 AVENUE HASSAN II              20000 CASABLANCA                                                 99999MAROC                      01 JANVIER 2024 TYPE-A                         00 00 00 00 00      INDIVIDUS NON RESIDENTS                                                                                                                                                         5670611717
KORE001     TYPE-A   *IND0000018*M   ANDRE GERARD                 5 RUE DIDOUCHE MOURAD            16000 ALGER                                                      99999ALGERIE                    01 JANVIER 2024 TYPE-A                         00 00 00 00 00      INDIVIDUS NON RESIDENTS                                                                                                                                                         6680711818
KORE001     TYPE-A   *IND0000019*MME LEBLANC CORINNE              AVENUE BOURGUIBA 33              1000 TUNIS                                                       99999TUNISIE                    01 JANVIER 2024 TYPE-A                         00 00 00 00 00      INDIVIDUS NON RESIDENTS                                                                                                                                                         5690811919
KORE001     TYPE-A   *IND0000020*MME MERCIER BEATRICE             456 RUE SAINTE CATHERINE         MONTREAL QC H3B 1B2                                              99999CANADA                     01 JANVIER 2024 TYPE-A                         00 00 00 00 00      INDIVIDUS NON RESIDENTS                                                                                                                                                         6700912020
KORE001     TYPE-A   *IND0000021*M   BLANC YVES                   123 MAIN STREET                  NEW YORK NY 10001                                                99999ETATS UNIS                 01 JANVIER 2024 TYPE-A                         00 00 00 00 00      INDIVIDUS NON RESIDENTS                                                                                                                                                         5711012121
KORE001     TYPE-A   *IND0000022*MME GUERIN AGNES                 12 RUE DES ALPES                 1200 GENEVE                                                      99999SUISSE                     01 JANVIER 2024 TYPE-A                         00 00 00 00 00      INDIVIDUS NON RESIDENTS                                                                                                                                                         6721112222
KORE001     TYPE-A   *IND0000023*MME BOYER PAULINE                CALLE MAYOR 15                   28001 MADRID                                                     99999ESPAGNE                    01 JANVIER 2024 TYPE-A                         00 00 00 00 00      INDIVIDUS NON RESIDENTS                                                                                                                                                         5731212323
KORE001     TYPE-A   *IND0000024*M   FAURE DAVID                  15 RUE DE LA PAIX                1000 BRUXELLES                                                   99999BELGIQUE                   01 JANVIER 2024 TYPE-A                         00 00 00 00 00      INDIVIDUS NON RESIDENTS                                                                                                                                                         6740112424
KORE001     TYPE-A   *IND0000025*MME GARNIER CLAIRE               VIA ROMA 8                       00100 ROME                                                       99999ITALIE                     01 JANVIER 2024 TYPE-A                         00 00 00 00 00      INDIVIDUS NON RESIDENTS                                                                                                                                                         
KORE001     TYPE-A   *IND0000026*MME CHEVALIER SOPHIE             HAUPTSTRASSE 22                  10115 BERLIN                                                     99999ALLEMAGNE                  01 JANVIER 2024 TYPE-A                         00 00 00 00 00      INDIVIDUS NON RESIDENTS                                                                                                                                                         6760312626
KORE001     TYPE-A   *IND0000027*M   ROBIN PIERRE                 RUA DA LIBERDADE 45              1200 LISBONNE                                                    99999PORTUGAL                   01 JANVIER 2024 TYPE-A                         00 00 00 00 00      INDIVIDUS NON RESIDENTS                                                                                                                                                         5770412727
KORE001     TYPE-A   *IND0000028*MME MULLER MARIE                 12 AVENUE HASSAN II              20000 CASABLANCA                                                 99999MAROC                      01 JANVIER 2024 TYPE-A                         00 00 00 00 00      INDIVIDUS NON RESIDENTS                                                                                                                                                         6780512828
KORE001     TYPE-A   *IND0000029*MME HENRY ISABELLE               5 RUE DIDOUCHE MOURAD            16000 ALGER                                                      99999ALGERIE                    01 JANVIER 2024 TYPE-A                         00 00 00 00 00      INDIVIDUS NON RESIDENTS                                                                                                                                                         5790612929
KORE001     TYPE-A   *IND0000030*M   MARTIN THOMAS                AVENUE BOURGUIBA 33              1000 TUNIS                                                       99999TUNISIE                    01 JANVIER 2024 TYPE-A                         00 00 00 00 00      INDIVIDUS NON RESIDENTS                                                                                                                                                         6800713030
KORE001     TYPE-A   *IND0000031*MME DUPONT SYLVIE                456 RUE SAINTE CATHERINE         MONTREAL QC H3B 1B2                                              99999CANADA                     01 JANVIER 2024 TYPE-A                         00 00 00 00 00      INDIVIDUS NON RESIDENTS                                                                                                                                                         5810813131
KORE001     TYPE-A   *IND0000032*MME BERNARD NATHALIE             123 MAIN STREET                  NEW YORK NY 10001                                                99999ETATS UNIS                 01 JANVIER 2024 TYPE-A                         00 00 00 00 00      INDIVIDUS NON RESIDENTS                                                                                                                                                         6820913232
KORE001     TYPE-A   *IND0000033*M   LEROY MICHEL                 12 RUE DES ALPES                 1200 GENEVE                                                      99999SUISSE                     01 JANVIER 2024 TYPE-A                         00 00 00 00 00      INDIVIDUS NON RESIDENTS                                                                                                                                                         5831013333
KORE001     TYPE-A   *IND0000034*MME MOREAU CATHERINE             CALLE MAYOR 15                   28001 MADRID                                                     99999ESPAGNE                    01 JANVIER 2024 TYPE-A                         00 00 00 00 00      INDIVIDUS NON RESIDENTS                                                                                                                                                         6841113434
KORE001     TYPE-A   *IND0000035*MME SIMON FLORENCE               15 RUE DE LA PAIX                1000 BRUXELLES                                                   99999BELGIQUE                   01 JANVIER 2024 TYPE-A                         00 00 00 00 00      INDIVIDUS NON RESIDENTS                                                                                                                                                         5851213535
KORE001     TYPE-A   *IND0000036*M   LEFEBVRE DANIEL              VIA ROMA 8                       00100 ROME                                                       99999ITALIE                     01 JANVIER 2024 TYPE-A                         00 00 00 00 00      INDIVIDUS NON RESIDENTS                                                                                                                                                         6860113636
KORE001     TYPE-A   *IND0000037*MME THOMAS MONIQUE               HAUPTSTRASSE 22                  10115 BERLIN                                                     99999ALLEMAGNE                  01 JANVIER 2024 TYPE-A                         00 00 00 00 00      INDIVIDUS NON RESIDENTS                                                                                                                                                         5870213737
KORE001     TYPE-A   *IND0000038*MME RICHARD FRANCOISE            RUA DA LIBERDADE 45              1200 LISBONNE                                                    99999PORTUGAL                   01 JANVIER 2024 TYPE-A                         00 00 00 00 00      INDIVIDUS NON RESIDENTS                                                                                                                                                         6880313838
KORE001     TYPE-A   *IND0000039*M   PETIT LOUIS                  12 AVENUE HASSAN II              20000 CASABLANCA                                                 99999MAROC                      01 JANVIER 2024 TYPE-A                         00 00 00 00 00      INDIVIDUS NON RESIDENTS                                                                                                                                                         5890413939
KORE001     TYPE-A   *IND0000040*MME DURAND VERONIQUE             5 RUE DIDOUCHE MOURAD            16000 ALGER                                                      99999ALGERIE                    01 JANVIER 2024 TYPE-A                         00 00 00 00 00      INDIVIDUS NON RESIDENTS                                                                                                                                                         6900514040
KORE001     TYPE-A   *IND0000041*MME LAMBERT PATRICIA             AVENUE BOURGUIBA 33              1000 TUNIS                                                       99999TUNISIE                    01 JANVIER 2024 TYPE-A                         00 00 00 00 00      INDIVIDUS NON RESIDENTS                                                                                                                                                         5910614141
KORE001     TYPE-A   *IND0000042*M   FONTAINE CLAUDE              456 RUE SAINTE CATHERINE         MONTREAL QC H3B 1B2                                              99999CANADA                     01 JANVIER 2024 TYPE-A                         00 00 00 00 00      INDIVIDUS NON RESIDENTS                                                                                                                                                         6920714242
KORE001     TYPE-A   *IND0000043*MME ROUSSEAU VALERIE             123 MAIN STREET                  NEW YORK NY 10001                                                99999ETATS UNIS                 01 JANVIER 2024 TYPE-A                         00 00 00 00 00      INDIVIDUS NON RESIDENTS                                                                                                                                                         5930814343
KORE001     TYPE-A   *IND0000044*MME VINCENT CORINNE              12 RUE DES ALPES                 1200 GENEVE                                                      99999SUISSE                     01 JANVIER 2024 TYPE-A                         00 00 00 00 00      INDIVIDUS NON RESIDENTS                                                                                                                                                         6940914444
KORE001     TYPE-A   *IND0000045*M   GAUTHIER RAYMOND             CALLE MAYOR 15                   28001 MADRID                                                     99999ESPAGNE                    01 JANVIER 2024 TYPE-A                         00 00 00 00 00      INDIVIDUS NON RESIDENTS                                                                                                                                                         5951014545
KORE001     TYPE-A   *IND0000046*MME MOREL LAURE                  15 RUE DE LA PAIX                1000 BRUXELLES                                                   99999BELGIQUE                   01 JANVIER 2024 TYPE-A                         00 00 00 00 00      INDIVIDUS NON RESIDENTS                                                                                                                                                         6961114646
KORE001     TYPE-A   *IND0000047*MME GIRARD AGNES                 VIA ROMA 8                       00100 ROME                                                       99999ITALIE                     01 JANVIER 2024 TYPE-A                         00 00 00 00 00      INDIVIDUS NON RESIDENTS                                                                                                                                                         5971214747
KORE001     TYPE-A   *IND0000048*M   ANDRE LUCA                   HAUPTSTRASSE 22                  10115 BERLIN                                                     99999ALLEMAGNE                  01 JANVIER 2024 TYPE-A                         00 00 00 00 00      INDIVIDUS NON RESIDENTS                                                                                                                                                         6980114848
KORE001     TYPE-A   *IND0000049*MME LEBLANC CECILE               RUA DA LIBERDADE 45              1200 LISBONNE                                                    99999PORTUGAL                   01 JANVIER 2024 TYPE-A                         00 00 00 00 00      INDIVIDUS NON RESIDENTS                                                                                                                                                         5500214949
KORE001     TYPE-A   *IND0000050*MME MERCIER CLAIRE               12 AVENUE HASSAN II              20000 CASABLANCA                                                 99999MAROC                      01 JANVIER 2024 TYPE-A                         00 00 00 00 00      INDIVIDUS NON RESIDENTS                                                                                                                                                         
KORE001     TYPE-A   *IND0000051*M   BLANC JEAN                   5 RUE DIDOUCHE MOURAD            16000 ALGER                                                      99999ALGERIE                    01 JANVIER 2024 TYPE-A                         00 00 00 00 00      INDIVIDUS NON RESIDENTS                                                                                                                                                         5520415151
KORE001     TYPE-A   *IND0000052*MME GUERIN ANNE                  AVENUE BOURGUIBA 33              1000 TUNIS                                                       99999TUNISIE                    01 JANVIER 2024 TYPE-A                         00 00 00 00 00      INDIVIDUS NON RESIDENTS                                                                                                                                                         6530515252
KORE001     TYPE-A   *IND0000053*MME BOYER MARIE                  456 RUE SAINTE CATHERINE         MONTREAL QC H3B 1B2                                              99999CANADA                     01 JANVIER 2024 TYPE-A                         00 00 00 00 00      INDIVIDUS NON RESIDENTS                                                                                                                                                         5540615353
KORE001     TYPE-A   *IND0000054*M   FAURE PHILIPPE               123 MAIN STREET                  NEW YORK NY 10001                                                99999ETATS UNIS                 01 JANVIER 2024 TYPE-A                         00 00 00 00 00      INDIVIDUS NON RESIDENTS                                                                                                                                                         6550715454
KORE001     TYPE-A   *IND0000055*MME GARNIER JULIE                12 RUE DES ALPES                 1200 GENEVE                                                      99999SUISSE                     01 JANVIER 2024 TYPE-A                         00 00 00 00 00      INDIVIDUS NON RESIDENTS                                                                                                                                                         5560815555
KORE001     TYPE-A   *IND0000056*MME CHEVALIER SYLVIE             CALLE MAYOR 15                   28001 MADRID                                                     99999ESPAGNE                    01 JANVIER 2024 TYPE-A                         00 00 00 00 00      INDIVIDUS NON RESIDENTS                                                                                                                                                         6570915656
KORE001     TYPE-A   *IND0000057*M   ROBIN PATRICK                15 RUE DE LA PAIX                1000 BRUXELLES                                                   99999BELGIQUE                   01 JANVIER 2024 TYPE-A                         00 00 00 00 00      INDIVIDUS NON RESIDENTS                                                                                                                                                         5581015757
KORE001     TYPE-A   *IND0000058*MME MULLER HELENE                VIA ROMA 8                       00100 ROME                                                       99999ITALIE                     01 JANVIER 2024 TYPE-A                         00 00 00 00 00      INDIVIDUS NON RESIDENTS                                                                                                                                                         6591115858
KORE001     TYPE-A   *IND0000059*MME HENRY CATHERINE              HAUPTSTRASSE 22                  10115 BERLIN                                                     99999ALLEMAGNE                  01 JANVIER 2024 TYPE-A                         00 00 00 00 00      INDIVIDUS NON RESIDENTS                                                                                                                                                         5601215959
KORE001     TYPE-A   *IND0000060*M   MARTIN CHRISTIAN             RUA DA LIBERDADE 45              1200 LISBONNE                                                    99999PORTUGAL                   01 JANVIER 2024 TYPE-A                         00 00 00 00 00      INDIVIDUS NON RESIDENTS                                                                                                                                                         6610116060
KORE001     TYPE-A   *IND0000061*MME DUPONT BRIGITTE              12 AVENUE HASSAN II              20000 CASABLANCA                                                 99999MAROC                      01 JANVIER 2024 TYPE-A                         00 00 00 00 00      INDIVIDUS NON RESIDENTS                                                                                                                                                         5620216161
KORE001     TYPE-A   *IND0000062*MME BERNARD MONIQUE              5 RUE DIDOUCHE MOURAD            16000 ALGER                                                      99999ALGERIE                    01 JANVIER 2024 TYPE-A                         00 00 00 00 00      INDIVIDUS NON RESIDENTS                                                                                                                                                         6630316262
KORE001     TYPE-A   *IND0000063*M   LEROY ROBERT                 AVENUE BOURGUIBA 33              1000 TUNIS                                                       99999TUNISIE                    01 JANVIER 2024 TYPE-A                         00 00 00 00 00      INDIVIDUS NON RESIDENTS                                                                                                                                                         5640416363
KORE001     TYPE-A   *IND0000064*MME MOREAU MARTINE               456 RUE SAINTE CATHERINE         MONTREAL QC H3B 1B2                                              99999CANADA                     01 JANVIER 2024 TYPE-A                         00 00 00 00 00      INDIVIDUS NON RESIDENTS                                                                                                                                                         6650516464
KORE001     TYPE-A   *IND0000065*MME SIMON VERONIQUE              123 MAIN STREET                  NEW YORK NY 10001                                                99999ETATS UNIS                 01 JANVIER 2024 TYPE-A                         00 00 00 00 00      INDIVIDUS NON RESIDENTS                                                                                                                                                         5660616565
KORE001     TYPE-A   *IND0000066*M   LEFEBVRE RENE                12 RUE DES ALPES                 1200 GENEVE                                                      99999SUISSE                     01 JANVIER 2024 TYPE-A                         00 00 00 00 00      INDIVIDUS NON RESIDENTS                                                                                                                                                         6670716666
KORE001     TYPE-A   *IND0000067*MME THOMAS SANDRINE              CALLE MAYOR 15                   28001 MADRID                                                     99999ESPAGNE                    01 JANVIER 2024 TYPE-A                         00 00 00 00 00      INDIVIDUS NON RESIDENTS                                                                                                                                                         5680816767
KORE001     TYPE-A   *IND0000068*MME RICHARD VALERIE              15 RUE DE LA PAIX                1000 BRUXELLES                                                   99999BELGIQUE                   01 JANVIER 2024 TYPE-A                         00 00 00 00 00      INDIVIDUS NON RESIDENTS                                                                                                                                                         6690916868
KORE001     TYPE-A   *IND0000069*M   PETIT BERNARD                VIA ROMA 8                       00100 ROME                                                       99999ITALIE                     01 JANVIER 2024 TYPE-A                         00 00 00 00 00      INDIVIDUS NON RESIDENTS                                                                                                                                                         5701016969
KORE001     TYPE-A   *IND0000070*MME DURAND BEATRICE              HAUPTSTRASSE 22                  10115 BERLIN                                                     99999ALLEMAGNE                  01 JANVIER 2024 TYPE-A                         00 00 00 00 00      INDIVIDUS NON RESIDENTS                                                                                                                                                         6711117070
KORE001     TYPE-A   *IND0000071*MME LAMBERT LAURE                RUA DA LIBERDADE 45              1200 LISBONNE                                                    99999PORTUGAL                   01 JANVIER 2024 TYPE-A                         00 00 00 00 00      INDIVIDUS NON RESIDENTS                                                                                                                                                         5721217171
KORE001     TYPE-A   *IND0000072*M   FONTAINE ERIC                12 AVENUE HASSAN II              20000 CASABLANCA                                                 99999MAROC                      01 JANVIER 2024 TYPE-A                         00 00 00 00 00      INDIVIDUS NON RESIDENTS                                                                                                                                                         6730117272
KORE001     TYPE-A   *IND0000073*MME ROUSSEAU PAULINE             5 RUE DIDOUCHE MOURAD            16000 ALGER                                                      99999ALGERIE                    01 JANVIER 2024 TYPE-A                         00 00 00 00 00      INDIVIDUS NON RESIDENTS                                                                                                                                                         5740217373
KORE001     TYPE-A   *IND0000074*MME VINCENT CECILE               AVENUE BOURGUIBA 33              1000 TUNIS                                                       99999TUNISIE                    01 JANVIER 2024 TYPE-A                         00 00 00 00 00      INDIVIDUS NON RESIDENTS                                                                                                                                                         6750317474
KORE001     TYPE-A   *IND0000075*M   GAUTHIER PAUL                456 RUE SAINTE CATHERINE         MONTREAL QC H3B 1B2                                              99999CANADA                     01 JANVIER 2024 TYPE-A                         00 00 00 00 00      INDIVIDUS NON RESIDENTS                                                                                                                                                         
KORE001     TYPE-A   *IND0000076*MME MOREL SOPHIE                 123 MAIN STREET                  NEW YORK NY 10001                                                99999ETATS UNIS                 01 JANVIER 2024 TYPE-A                         00 00 00 00 00      INDIVIDUS NON RESIDENTS                                                                                                                                                         6770517676
KORE001     TYPE-A   *IND0000077*MME GIRARD ANNE                  12 RUE DES ALPES                 1200 GENEVE                                                      99999SUISSE                     01 JANVIER 2024 TYPE-A                         00 00 00 00 00      INDIVIDUS NON RESIDENTS                                                                                                                                                         5780617777
KORE001     TYPE-A   *IND0000078*M   ANDRE MARC                   CALLE MAYOR 15                   28001 MADRID                                                     99999ESPAGNE                    01 JANVIER 2024 TYPE-A                         00 00 00 00 00      INDIVIDUS NON RESIDENTS                                                                                                                                                         6790717878
KORE001     TYPE-A   *IND0000079*MME LEBLANC ISABELLE             15 RUE DE LA PAIX                1000 BRUXELLES                                                   99999BELGIQUE                   01 JANVIER 2024 TYPE-A                         00 00 00 00 00      INDIVIDUS NON RESIDENTS                                                                                                                                                         5800817979
KORE001     TYPE-A   *IND0000080*MME MERCIER JULIE                VIA ROMA 8                       00100 ROME                                                       99999ITALIE                     01 JANVIER 2024 TYPE-A                         00 00 00 00 00      INDIVIDUS NON RESIDENTS                                                                                                                                                         6810918080
KORE001     TYPE-A   *IND0000081*M   BLANC NICOLAS                HAUPTSTRASSE 22                  10115 BERLIN                                                     99999ALLEMAGNE                  01 JANVIER 2024 TYPE-A                         00 00 00 00 00      INDIVIDUS NON RESIDENTS                                                                                                                                                         5821018181
KORE001     TYPE-A   *IND0000082*MME GUERIN NATHALIE              RUA DA LIBERDADE 45              1200 LISBONNE                                                    99999PORTUGAL                   01 JANVIER 2024 TYPE-A                         00 00 00 00 00      INDIVIDUS NON RESIDENTS                                                                                                                                                         6831118282
KORE001     TYPE-A   *IND0000083*MME BOYER HELENE                 12 AVENUE HASSAN II              20000 CASABLANCA                                                 99999MAROC                      01 JANVIER 2024 TYPE-A                         00 00 00 00 00      INDIVIDUS NON RESIDENTS                                                                                                                                                         5841218383
KORE001     TYPE-A   *IND0000084*M   FAURE ALAIN                  5 RUE DIDOUCHE MOURAD            16000 ALGER                                                      99999ALGERIE                    01 JANVIER 2024 TYPE-A                         00 00 00 00 00      INDIVIDUS NON RESIDENTS                                                                                                                                                         6850118484
KORE001     TYPE-A   *IND0000085*MME GARNIER FLORENCE             AVENUE BOURGUIBA 33              1000 TUNIS                                                       99999TUNISIE                    01 JANVIER 2024 TYPE-A                         00 00 00 00 00      INDIVIDUS NON RESIDENTS                                                                                                                                                         5860218585
KORE001     TYPE-A   *IND0000086*MME CHEVALIER BRIGITTE           456 RUE SAINTE CATHERINE         MONTREAL QC H3B 1B2                                              99999CANADA                     01 JANVIER 2024 TYPE-A                         00 00 00 00 00      INDIVIDUS NON RESIDENTS                                                                                                                                                         6870318686
KORE001     TYPE-A   *IND0000087*M   ROBIN HENRI                  123 MAIN STREET                  NEW YORK NY 10001                                                99999ETATS UNIS                 01 JANVIER 2024 TYPE-A                         00 00 00 00 00      INDIVIDUS NON RESIDENTS                                                                                                                                                         5880418787
KORE001     TYPE-A   *IND0000088*MME MULLER FRANCOISE             12 RUE DES ALPES                 1200 GENEVE                                                      99999SUISSE                     01 JANVIER 2024 TYPE-A                         00 00 00 00 00      INDIVIDUS NON RESIDENTS                                                                                                                                                         6890518888
KORE001     TYPE-A   *IND0000089*MME HENRY MARTINE                CALLE MAYOR 15                   28001 MADRID                                                     99999ESPAGNE                    01 JANVIER 2024 TYPE-A                         00 00 00 00 00      INDIVIDUS NON RESIDENTS                                                                                                                                                         5900618989
KORE001     TYPE-A   *IND0000090*M   MARTIN FRANCOIS              15 RUE DE LA PAIX                1000 BRUXELLES                                                   99999BELGIQUE                   01 JANVIER 2024 TYPE-A                         00 00 00 00 00      INDIVIDUS NON RESIDENTS                                                                                                                                                         6910719090
KORE001     TYPE-A   *IND0000091*MME DUPONT PATRICIA              VIA ROMA 8                       00100 ROME                                                       99999ITALIE                     01 JANVIER 2024 TYPE-A                         00 00 00 00 00      INDIVIDUS NON RESIDENTS                                                                                                                                                         5920819191
KORE001     TYPE-A   *IND0000092*MME BERNARD SANDRINE             HAUPTSTRASSE 22                  10115 BERLIN                                                     99999ALLEMAGNE                  01 JANVIER 2024 TYPE-A                         00 00 00 00 00      INDIVIDUS NON RESIDENTS                                                                                                                                                         6930919292
KORE001     TYPE-A   *IND0000093*M   LEROY GERARD                 RUA DA LIBERDADE 45              1200 LISBONNE                                                    99999PORTUGAL                   01 JANVIER 2024 TYPE-A                         00 00 00 00 00      INDIVIDUS NON RESIDENTS                                                                                                                                                         5941019393
KORE001     TYPE-A   *IND0000094*MME MOREAU CORINNE               12 AVENUE HASSAN II              20000 CASABLANCA                                                 99999MAROC                      01 JANVIER 2024 TYPE-A                         00 00 00 00 00      INDIVIDUS NON RESIDENTS                                                                                                                                                         6951119494
KORE001     TYPE-A   *IND0000095*MME SIMON BEATRICE               5 RUE DIDOUCHE MOURAD            16000 ALGER                                                      99999ALGERIE                    01 JANVIER 2024 TYPE-A                         00 00 00 00 00      INDIVIDUS NON RESIDENTS                                                                                                                                                         5961219595
KORE001     TYPE-A   *IND0000096*M   LEFEBVRE YVES                AVENUE BOURGUIBA 33              1000 TUNIS                                                       99999TUNISIE                    01 JANVIER 2024 TYPE-A                         00 00 00 00 00      INDIVIDUS NON RESIDENTS                                                                                                                                                         6970119696
KORE001     TYPE-A   *IND0000097*MME THOMAS AGNES                 456 RUE SAINTE CATHERINE         MONTREAL QC H3B 1B2                                              99999CANADA                     01 JANVIER 2024 TYPE-A                         00 00 00 00 00      INDIVIDUS NON RESIDENTS                                                                                                                                                         5980219797
KORE001     TYPE-A   *IND0000098*MME RICHARD PAULINE              123 MAIN STREET                  NEW YORK NY 10001                                                99999ETATS UNIS                 01 JANVIER 2024 TYPE-A                         00 00 00 00 00      INDIVIDUS NON RESIDENTS                                                                                                                                                         6500319898
KORE001     TYPE-A   *IND0000099*M   PETIT DAVID                  12 RUE DES ALPES                 1200 GENEVE                                                      99999SUISSE                     01 JANVIER 2024 TYPE-A                         00 00 00 00 00      INDIVIDUS NON RESIDENTS                                                                                                                                                         5510419900
KORE001     TYPE-A   *IND0000100*MME DURAND CLAIRE                CALLE MAYOR 15                   28001 MADRID                                                     99999ESPAGNE                    01 JANVIER 2024 TYPE-A                         00 00 00 00 00      INDIVIDUS NON RESIDENTS                                                                                                                                                         
KORE001     TYPE-A   *IND0000101*MME LAMBERT SOPHIE               15 RUE DE LA PAIX                1000 BRUXELLES                                                   99999BELGIQUE                   01 JANVIER 2024 TYPE-A                         00 00 00 00 00      INDIVIDUS NON RESIDENTS                                                                                                                                                         5530620102
KORE001     TYPE-A   *IND0000102*M   FONTAINE PIERRE              VIA ROMA 8                       00100 ROME                                                       99999ITALIE                     01 JANVIER 2024 TYPE-A                         00 00 00 00 00      INDIVIDUS NON RESIDENTS                                                                                                                                                         6540720203
KORE001     TYPE-A   *IND0000103*MME ROUSSEAU MARIE               HAUPTSTRASSE 22                  10115 BERLIN                                                     99999ALLEMAGNE                  01 JANVIER 2024 TYPE-A                         00 00 00 00 00      INDIVIDUS NON RESIDENTS                                                                                                                                                         5550820304
KORE001     TYPE-A   *IND0000104*MME VINCENT ISABELLE             RUA DA LIBERDADE 45              1200 LISBONNE                                                    99999PORTUGAL                   01 JANVIER 2024 TYPE-A                         00 00 00 00 00      INDIVIDUS NON RESIDENTS                                                                                                                                                         6560920405
KORE001     TYPE-A   *IND0000105*M   GAUTHIER THOMAS              12 AVENUE HASSAN II              20000 CASABLANCA                                                 99999MAROC                      01 JANVIER 2024 TYPE-A                         00 00 00 00 00      INDIVIDUS NON RESIDENTS                                                                                                                                                         5571020506
KORE001     TYPE-A   *IND0000106*MME MOREL SYLVIE                 5 RUE DIDOUCHE MOURAD            16000 ALGER                                                      99999ALGERIE                    01 JANVIER 2024 TYPE-A                         00 00 00 00 00      INDIVIDUS NON RESIDENTS                                                                                                                                                         6581120607
KORE001     TYPE-A   *IND0000107*MME GIRARD NATHALIE              AVENUE BOURGUIBA 33              1000 TUNIS                                                       99999TUNISIE                    01 JANVIER 2024 TYPE-A                         00 00 00 00 00      INDIVIDUS NON RESIDENTS                                                                                                                                                         5591220708
KORE001     TYPE-A   *IND0000108*M   ANDRE MICHEL                 456 RUE SAINTE CATHERINE         MONTREAL QC H3B 1B2                                              99999CANADA                     01 JANVIER 2024 TYPE-A                         00 00 00 00 00      INDIVIDUS NON RESIDENTS                                                                                                                                                         6600120809
KORE001     TYPE-A   *IND0000109*MME LEBLANC CATHERINE            123 MAIN STREET                  NEW YORK NY 10001                                                99999ETATS UNIS                 01 JANVIER 2024 TYPE-A                         00 00 00 00 00      INDIVIDUS NON RESIDENTS                                                                                                                                                         5610220910
KORE001     TYPE-A   *IND0000110*MME MERCIER FLORENCE             12 RUE DES ALPES                 1200 GENEVE                                                      99999SUISSE                     01 JANVIER 2024 TYPE-A                         00 00 00 00 00      INDIVIDUS NON RESIDENTS                                                                                                                                                         6620321011
KORE001     TYPE-A   *IND0000111*M   BLANC DANIEL                 CALLE MAYOR 15                   28001 MADRID                                                     99999ESPAGNE                    01 JANVIER 2024 TYPE-A                         00 00 00 00 00      INDIVIDUS NON RESIDENTS                                                                                                                                                         5630421112
KORE001     TYPE-A   *IND0000112*MME GUERIN MONIQUE               15 RUE DE LA PAIX                1000 BRUXELLES                                                   99999BELGIQUE                   01 JANVIER 2024 TYPE-A                         00 00 00 00 00      INDIVIDUS NON RESIDENTS                                                                                                                                                         6640521213
KORE001     TYPE-A   *IND0000113*MME BOYER FRANCOISE              VIA ROMA 8                       00100 ROME                                                       99999ITALIE                     01 JANVIER 2024 TYPE-A                         00 00 00 00 00      INDIVIDUS NON RESIDENTS                                                                                                                                                         5650621314
KORE001     TYPE-A   *IND0000114*M   FAURE LOUIS                  HAUPTSTRASSE 22                  10115 BERLIN                                                     99999ALLEMAGNE                  01 JANVIER 2024 TYPE-A                         00 00 00 00 00      INDIVIDUS NON RESIDENTS                                                                                                                                                         6660721415
KORE001     TYPE-A   *IND0000115*MME GARNIER VERONIQUE            RUA DA LIBERDADE 45              1200 LISBONNE                                                    99999PORTUGAL                   01 JANVIER 2024 TYPE-A                         00 00 00 00 00      INDIVIDUS NON RESIDENTS                                                                                                                                                         5670821516
KORE001     TYPE-A   *IND0000116*MME CHEVALIER PATRICIA           12 AVENUE HASSAN II              20000 CASABLANCA                                                 99999MAROC                      01 JANVIER 2024 TYPE-A                         00 00 00 00 00      INDIVIDUS NON RESIDENTS                                                                                                                                                         6680921617
KORE001     TYPE-A   *IND0000117*M   ROBIN CLAUDE                 5 RUE DIDOUCHE MOURAD            16000 ALGER                                                      99999ALGERIE                    01 JANVIER 2024 TYPE-A                         00 00 00 00 00      INDIVIDUS NON RESIDENTS                                                                                                                                                         5691021718
KORE001     TYPE-A   *IND0000118*MME MULLER VALERIE               AVENUE BOURGUIBA 33              1000 TUNIS                                                       99999TUNISIE                    01 JANVIER 2024 TYPE-A                         00 00 00 00 00      INDIVIDUS NON RESIDENTS                                                                                                                                                         6701121819
KORE001     TYPE-A   *IND0000119*MME HENRY CORINNE                456 RUE SAINTE CATHERINE         MONTREAL QC H3B 1B2                                              99999CANADA                     01 JANVIER 2024 TYPE-A                         00 00 00 00 00      INDIVIDUS NON RESIDENTS                                                                                                                                                         5711221920
KORE001     TYPE-A   *IND0000120*M   MARTIN RAYMOND               123 MAIN STREET                  NEW YORK NY 10001                                                99999ETATS UNIS                 01 JANVIER 2024 TYPE-A                         00 00 00 00 00      INDIVIDUS NON RESIDENTS                                                                                                                                                         6720122021
KORE001     TYPE-A   *IND0000121*MME DUPONT LAURE                 12 RUE DES ALPES                 1200 GENEVE                                                      99999SUISSE                     01 JANVIER 2024 TYPE-A                         00 00 00 00 00      INDIVIDUS NON RESIDENTS                                                                                                                                                         5730222122
KORE001     TYPE-A   *IND0000122*MME BERNARD AGNES                CALLE MAYOR 15                   28001 MADRID                                                     99999ESPAGNE                    01 JANVIER 2024 TYPE-A                         00 00 00 00 00      INDIVIDUS NON RESIDENTS                                                                                                                                                         6740322223
KORE001     TYPE-A   *IND0000123*M   LEROY LUCA                   15 RUE DE LA PAIX                1000 BRUXELLES                                                   99999BELGIQUE                   01 JANVIER 2024 TYPE-A                         00 00 00 00 00      INDIVIDUS NON RESIDENTS                                                                                                                                                         5750422324
KORE001     TYPE-A   *IND0000124*MME MOREAU CECILE                VIA ROMA 8                       00100 ROME                                                       99999ITALIE                     01 JANVIER 2024 TYPE-A                         00 00 00 00 00      INDIVIDUS NON RESIDENTS                                                                                                                                                         6760522425
KORE001     TYPE-A   *IND0000125*MME SIMON CLAIRE                 HAUPTSTRASSE 22                  10115 BERLIN                                                     99999ALLEMAGNE                  01 JANVIER 2024 TYPE-A                         00 00 00 00 00      INDIVIDUS NON RESIDENTS                                                                                                                                                         
KORE001     TYPE-A   *IND0000126*M   LEFEBVRE JEAN                RUA DA LIBERDADE 45              1200 LISBONNE                                                    99999PORTUGAL                   01 JANVIER 2024 TYPE-A                         00 00 00 00 00      INDIVIDUS NON RESIDENTS                                                                                                                                                         6780722627
KORE001     TYPE-A   *IND0000127*MME THOMAS ANNE                  12 AVENUE HASSAN II              20000 CASABLANCA                                                 99999MAROC                      01 JANVIER 2024 TYPE-A                         00 00 00 00 00      INDIVIDUS NON RESIDENTS                                                                                                                                                         5790822728
KORE001     TYPE-A   *IND0000128*MME RICHARD MARIE                5 RUE DIDOUCHE MOURAD            16000 ALGER                                                      99999ALGERIE                    01 JANVIER 2024 TYPE-A                         00 00 00 00 00      INDIVIDUS NON RESIDENTS                                                                                                                                                         6800922829
KORE001     TYPE-A   *IND0000129*M   PETIT PHILIPPE               AVENUE BOURGUIBA 33              1000 TUNIS                                                       99999TUNISIE                    01 JANVIER 2024 TYPE-A                         00 00 00 00 00      INDIVIDUS NON RESIDENTS                                                                                                                                                         5811022930
KORE001     TYPE-A   *IND0000130*MME DURAND JULIE                 456 RUE SAINTE CATHERINE         MONTREAL QC H3B 1B2                                              99999CANADA                     01 JANVIER 2024 TYPE-A                         00 00 00 00 00      INDIVIDUS NON RESIDENTS                                                                                                                                                         6821123031
KORE001     TYPE-A   *IND0000131*MME LAMBERT SYLVIE               123 MAIN STREET                  NEW YORK NY 10001                                                99999ETATS UNIS                 01 JANVIER 2024 TYPE-A                         00 00 00 00 00      INDIVIDUS NON RESIDENTS                                                                                                                                                         5831223132
KORE001     TYPE-A   *IND0000132*M   FONTAINE PATRICK             12 RUE DES ALPES                 1200 GENEVE                                                      99999SUISSE                     01 JANVIER 2024 TYPE-A                         00 00 00 00 00      INDIVIDUS NON RESIDENTS                                                                                                                                                         6840123233
KORE001     TYPE-A   *IND0000133*MME ROUSSEAU HELENE              CALLE MAYOR 15                   28001 MADRID                                                     99999ESPAGNE                    01 JANVIER 2024 TYPE-A                         00 00 00 00 00      INDIVIDUS NON RESIDENTS                                                                                                                                                         5850223334
KORE001     TYPE-A   *IND0000134*MME VINCENT CATHERINE            15 RUE DE LA PAIX                1000 BRUXELLES                                                   99999BELGIQUE                   01 JANVIER 2024 TYPE-A                         00 00 00 00 00      INDIVIDUS NON RESIDENTS                                                                                                                                                         6860323435
KORE001     TYPE-A   *IND0000135*M   GAUTHIER CHRISTIAN           VIA ROMA 8                       00100 ROME                                                       99999ITALIE                     01 JANVIER 2024 TYPE-A                         00 00 00 00 00      INDIVIDUS NON RESIDENTS                                                                                                                                                         5870423536
KORE001     TYPE-A   *IND0000136*MME MOREL BRIGITTE               HAUPTSTRASSE 22                  10115 BERLIN                                                     99999ALLEMAGNE                  01 JANVIER 2024 TYPE-A                         00 00 00 00 00      INDIVIDUS NON RESIDENTS                                                                                                                                                         6880523637
KORE001     TYPE-A   *IND0000137*MME GIRARD MONIQUE               RUA DA LIBERDADE 45              1200 LISBONNE                                                    99999PORTUGAL                   01 JANVIER 2024 TYPE-A                         00 00 00 00 00      INDIVIDUS NON RESIDENTS                                                                                                                                                         5890623738
KORE001     TYPE-A   *IND0000138*M   ANDRE ROBERT                 12 AVENUE HASSAN II              20000 CASABLANCA                                                 99999MAROC                      01 JANVIER 2024 TYPE-A                         00 00 00 00 00      INDIVIDUS NON RESIDENTS                                                                                                                                                         6900723839
KORE001     TYPE-A   *IND0000139*MME LEBLANC MARTINE              5 RUE DIDOUCHE MOURAD            16000 ALGER                                                      99999ALGERIE                    01 JANVIER 2024 TYPE-A                         00 00 00 00 00      INDIVIDUS NON RESIDENTS                                                                                                                                                         5910823940
KORE001     TYPE-A   *IND0000140*MME MERCIER VERONIQUE            AVENUE BOURGUIBA 33              1000 TUNIS                                                       99999TUNISIE                    01 JANVIER 2024 TYPE-A                         00 00 00 00 00      INDIVIDUS NON RESIDENTS                                                                                                                                                         6920924041
KORE001     TYPE-A   *IND0000141*M   BLANC RENE                   456 RUE SAINTE CATHERINE         MONTREAL QC H3B 1B2                                              99999CANADA                     01 JANVIER 2024 TYPE-A                         00 00 00 00 00      INDIVIDUS NON RESIDENTS                                                                                                                                                         5931024142
KORE001     TYPE-A   *IND0000142*MME GUERIN SANDRINE              123 MAIN STREET                  NEW YORK NY 10001                                                99999ETATS UNIS                 01 JANVIER 2024 TYPE-A                         00 00 00 00 00      INDIVIDUS NON RESIDENTS                                                                                                                                                         6941124243
KORE001     TYPE-A   *IND0000143*MME BOYER VALERIE                12 RUE DES ALPES                 1200 GENEVE                                                      99999SUISSE                     01 JANVIER 2024 TYPE-A                         00 00 00 00 00      INDIVIDUS NON RESIDENTS                                                                                                                                                         5951224344
KORE001     TYPE-A   *IND0000144*M   FAURE BERNARD                CALLE MAYOR 15                   28001 MADRID                                                     99999ESPAGNE                    01 JANVIER 2024 TYPE-A                         00 00 00 00 00      INDIVIDUS NON RESIDENTS                                                                                                                                                         6960124445
KORE001     TYPE-A   *IND0000145*MME GARNIER BEATRICE             15 RUE DE LA PAIX                1000 BRUXELLES                                                   99999BELGIQUE                   01 JANVIER 2024 TYPE-A                         00 00 00 00 00      INDIVIDUS NON RESIDENTS                                                                                                                                                         5970224546
KORE001     TYPE-A   *IND0000146*MME CHEVALIER LAURE              VIA ROMA 8                       00100 ROME                                                       99999ITALIE                     01 JANVIER 2024 TYPE-A                         00 00 00 00 00      INDIVIDUS NON RESIDENTS                                                                                                                                                         6980324647
KORE001     TYPE-A   *IND0000147*M   ROBIN ERIC                   HAUPTSTRASSE 22                  10115 BERLIN                                                     99999ALLEMAGNE                  01 JANVIER 2024 TYPE-A                         00 00 00 00 00      INDIVIDUS NON RESIDENTS                                                                                                                                                         5500424748
KORE001     TYPE-A   *IND0000148*MME MULLER PAULINE               RUA DA LIBERDADE 45              1200 LISBONNE                                                    99999PORTUGAL                   01 JANVIER 2024 TYPE-A                         00 00 00 00 00      INDIVIDUS NON RESIDENTS                                                                                                                                                         6510524849
KORE001     TYPE-A   *IND0000149*MME HENRY CECILE                 12 AVENUE HASSAN II              20000 CASABLANCA                                                 99999MAROC                      01 JANVIER 2024 TYPE-A                         00 00 00 00 00      INDIVIDUS NON RESIDENTS                                                                                                                                                         5520624950
KORE001     TYPE-A   *IND0000150*M   MARTIN PAUL                  5 RUE DIDOUCHE MOURAD            16000 ALGER                                                      99999ALGERIE                    01 JANVIER 2024 TYPE-A                         00 00 00 00 00      INDIVIDUS NON RESIDENTS                                                                                                                                                         
KORE001     TYPE-A   *IND0000151*MME DUPONT SOPHIE                AVENUE BOURGUIBA 33              1000 TUNIS                                                       99999TUNISIE                    01 JANVIER 2024 TYPE-A                         00 00 00 00 00      INDIVIDUS NON RESIDENTS                                                                                                                                                         5540825152
KORE001     TYPE-A   *IND0000152*MME BERNARD ANNE                 456 RUE SAINTE CATHERINE         MONTREAL QC H3B 1B2                                              99999CANADA                     01 JANVIER 2024 TYPE-A                         00 00 00 00 00      INDIVIDUS NON RESIDENTS                                                                                                                                                         6550925253
KORE001     TYPE-A   *IND0000153*M   LEROY MARC                   123 MAIN STREET                  NEW YORK NY 10001                                                99999ETATS UNIS                 01 JANVIER 2024 TYPE-A                         00 00 00 00 00      INDIVIDUS NON RESIDENTS                                                                                                                                                         5561025354
KORE001     TYPE-A   *IND0000154*MME MOREAU ISABELLE              12 RUE DES ALPES                 1200 GENEVE                                                      99999SUISSE                     01 JANVIER 2024 TYPE-A                         00 00 00 00 00      INDIVIDUS NON RESIDENTS                                                                                                                                                         6571125455
KORE001     TYPE-A   *IND0000155*MME SIMON JULIE                  CALLE MAYOR 15                   28001 MADRID                                                     99999ESPAGNE                    01 JANVIER 2024 TYPE-A                         00 00 00 00 00      INDIVIDUS NON RESIDENTS                                                                                                                                                         5581225556
KORE001     TYPE-A   *IND0000156*M   LEFEBVRE NICOLAS             15 RUE DE LA PAIX                1000 BRUXELLES                                                   99999BELGIQUE                   01 JANVIER 2024 TYPE-A                         00 00 00 00 00      INDIVIDUS NON RESIDENTS                                                                                                                                                         6590125657
KORE001     TYPE-A   *IND0000157*MME THOMAS NATHALIE              VIA ROMA 8                       00100 ROME                                                       99999ITALIE                     01 JANVIER 2024 TYPE-A                         00 00 00 00 00      INDIVIDUS NON RESIDENTS                                                                                                                                                         5600225758
KORE001     TYPE-A   *IND0000158*MME RICHARD HELENE               HAUPTSTRASSE 22                  10115 BERLIN                                                     99999ALLEMAGNE                  01 JANVIER 2024 TYPE-A                         00 00 00 00 00      INDIVIDUS NON RESIDENTS                                                                                                                                                         6610325859
KORE001     TYPE-A   *IND0000159*M   PETIT ALAIN                  RUA DA LIBERDADE 45              1200 LISBONNE                                                    99999PORTUGAL                   01 JANVIER 2024 TYPE-A                         00 00 00 00 00      INDIVIDUS NON RESIDENTS                                                                                                                                                         5620425960
KORE001     TYPE-A   *IND0000160*MME DURAND FLORENCE              12 AVENUE HASSAN II              20000 CASABLANCA                                                 99999MAROC                      01 JANVIER 2024 TYPE-A                         00 00 00 00 00      INDIVIDUS NON RESIDENTS                                                                                                                                                         6630526061
KORE001     TYPE-A   *IND0000161*MME LAMBERT BRIGITTE             5 RUE DIDOUCHE MOURAD            16000 ALGER                                                      99999ALGERIE                    01 JANVIER 2024 TYPE-A                         00 00 00 00 00      INDIVIDUS NON RESIDENTS                                                                                                                                                         5640626162
KORE001     TYPE-A   *IND0000162*M   FONTAINE HENRI               AVENUE BOURGUIBA 33              1000 TUNIS                                                       99999TUNISIE                    01 JANVIER 2024 TYPE-A                         00 00 00 00 00      INDIVIDUS NON RESIDENTS                                                                                                                                                         6650726263
KORE001     TYPE-A   *IND0000163*MME ROUSSEAU FRANCOISE           456 RUE SAINTE CATHERINE         MONTREAL QC H3B 1B2                                              99999CANADA                     01 JANVIER 2024 TYPE-A                         00 00 00 00 00      INDIVIDUS NON RESIDENTS                                                                                                                                                         5660826364
KORE001     TYPE-A   *IND0000164*MME VINCENT MARTINE              123 MAIN STREET                  NEW YORK NY 10001                                                99999ETATS UNIS                 01 JANVIER 2024 TYPE-A                         00 00 00 00 00      INDIVIDUS NON RESIDENTS                                                                                                                                                         6670926465
KORE001     TYPE-A   *IND0000165*M   GAUTHIER FRANCOIS            12 RUE DES ALPES                 1200 GENEVE                                                      99999SUISSE                     01 JANVIER 2024 TYPE-A                         00 00 00 00 00      INDIVIDUS NON RESIDENTS                                                                                                                                                         5681026566
KORE001     TYPE-A   *IND0000166*MME MOREL PATRICIA               CALLE MAYOR 15                   28001 MADRID                                                     99999ESPAGNE                    01 JANVIER 2024 TYPE-A                         00 00 00 00 00      INDIVIDUS NON RESIDENTS                                                                                                                                                         6691126667
KORE001     TYPE-A   *IND0000167*MME GIRARD SANDRINE              15 RUE DE LA PAIX                1000 BRUXELLES                                                   99999BELGIQUE                   01 JANVIER 2024 TYPE-A                         00 00 00 00 00      INDIVIDUS NON RESIDENTS                                                                                                                                                         5701226768
KORE001     TYPE-A   *IND0000168*M   ANDRE GERARD                 VIA ROMA 8                       00100 ROME                                                       99999ITALIE                     01 JANVIER 2024 TYPE-A                         00 00 00 00 00      INDIVIDUS NON RESIDENTS                                                                                                                                                         6710126869
KORE001     TYPE-A   *IND0000169*MME LEBLANC CORINNE              HAUPTSTRASSE 22                  10115 BERLIN                                                     99999ALLEMAGNE                  01 JANVIER 2024 TYPE-A                         00 00 00 00 00      INDIVIDUS NON RESIDENTS                                                                                                                                                         5720226970
KORE001     TYPE-A   *IND0000170*MME MERCIER BEATRICE             RUA DA LIBERDADE 45              1200 LISBONNE                                                    99999PORTUGAL                   01 JANVIER 2024 TYPE-A                         00 00 00 00 00      INDIVIDUS NON RESIDENTS                                                                                                                                                         6730327071
KORE001     TYPE-A   *IND0000171*M   BLANC YVES                   12 AVENUE HASSAN II              20000 CASABLANCA                                                 99999MAROC                      01 JANVIER 2024 TYPE-A                         00 00 00 00 00      INDIVIDUS NON RESIDENTS                                                                                                                                                         5740427172
KORE001     TYPE-A   *IND0000172*MME GUERIN AGNES                 5 RUE DIDOUCHE MOURAD            16000 ALGER                                                      99999ALGERIE                    01 JANVIER 2024 TYPE-A                         00 00 00 00 00      INDIVIDUS NON RESIDENTS                                                                                                                                                         6750527273
KORE001     TYPE-A   *IND0000173*MME BOYER PAULINE                AVENUE BOURGUIBA 33              1000 TUNIS                                                       99999TUNISIE                    01 JANVIER 2024 TYPE-A                         00 00 00 00 00      INDIVIDUS NON RESIDENTS                                                                                                                                                         5760627374
KORE001     TYPE-A   *IND0000174*M   FAURE DAVID                  456 RUE SAINTE CATHERINE         MONTREAL QC H3B 1B2                                              99999CANADA                     01 JANVIER 2024 TYPE-A                         00 00 00 00 00      INDIVIDUS NON RESIDENTS                                                                                                                                                         6770727475
KORE001     TYPE-A   *IND0000175*MME GARNIER CLAIRE               123 MAIN STREET                  NEW YORK NY 10001                                                99999ETATS UNIS                 01 JANVIER 2024 TYPE-A                         00 00 00 00 00      INDIVIDUS NON RESIDENTS                                                                                                                                                         
KORE001     TYPE-A   *IND0000176*MME CHEVALIER SOPHIE             12 RUE DES ALPES                 1200 GENEVE                                                      99999SUISSE                     01 JANVIER 2024 TYPE-A                         00 00 00 00 00      INDIVIDUS NON RESIDENTS                                                                                                                                                         6790927677
KORE001     TYPE-A   *IND0000177*M   ROBIN PIERRE                 CALLE MAYOR 15                   28001 MADRID                                                     99999ESPAGNE                    01 JANVIER 2024 TYPE-A                         00 00 00 00 00      INDIVIDUS NON RESIDENTS                                                                                                                                                         5801027778
KORE001     TYPE-A   *IND0000178*MME MULLER MARIE                 15 RUE DE LA PAIX                1000 BRUXELLES                                                   99999BELGIQUE                   01 JANVIER 2024 TYPE-A                         00 00 00 00 00      INDIVIDUS NON RESIDENTS                                                                                                                                                         6811127879
KORE001     TYPE-A   *IND0000179*MME HENRY ISABELLE               VIA ROMA 8                       00100 ROME                                                       99999ITALIE                     01 JANVIER 2024 TYPE-A                         00 00 00 00 00      INDIVIDUS NON RESIDENTS                                                                                                                                                         5821227980
KORE001     TYPE-A   *IND0000180*M   MARTIN THOMAS                HAUPTSTRASSE 22                  10115 BERLIN                                                     99999ALLEMAGNE                  01 JANVIER 2024 TYPE-A                         00 00 00 00 00      INDIVIDUS NON RESIDENTS                                                                                                                                                         6830128081
KORE001     TYPE-A   *IND0000181*MME DUPONT SYLVIE                RUA DA LIBERDADE 45              1200 LISBONNE                                                    99999PORTUGAL                   01 JANVIER 2024 TYPE-A                         00 00 00 00 00      INDIVIDUS NON RESIDENTS                                                                                                                                                         5840228182
KORE001     TYPE-A   *IND0000182*MME BERNARD NATHALIE             12 AVENUE HASSAN II              20000 CASABLANCA                                                 99999MAROC                      01 JANVIER 2024 TYPE-A                         00 00 00 00 00      INDIVIDUS NON RESIDENTS                                                                                                                                                         6850328283
KORE001     TYPE-A   *IND0000183*M   LEROY MICHEL                 5 RUE DIDOUCHE MOURAD            16000 ALGER                                                      99999ALGERIE                    01 JANVIER 2024 TYPE-A                         00 00 00 00 00      INDIVIDUS NON RESIDENTS                                                                                                                                                         5860428384
KORE001     TYPE-A   *IND0000184*MME MOREAU CATHERINE             AVENUE BOURGUIBA 33              1000 TUNIS                                                       99999TUNISIE                    01 JANVIER 2024 TYPE-A                         00 00 00 00 00      INDIVIDUS NON RESIDENTS                                                                                                                                                         6870528485
KORE001     TYPE-A   *IND0000185*MME SIMON FLORENCE               456 RUE SAINTE CATHERINE         MONTREAL QC H3B 1B2                                              99999CANADA                     01 JANVIER 2024 TYPE-A                         00 00 00 00 00      INDIVIDUS NON RESIDENTS                                                                                                                                                         5880628586
KORE001     TYPE-A   *IND0000186*M   LEFEBVRE DANIEL              123 MAIN STREET                  NEW YORK NY 10001                                                99999ETATS UNIS                 01 JANVIER 2024 TYPE-A                         00 00 00 00 00      INDIVIDUS NON RESIDENTS                                                                                                                                                         6890728687
KORE001     TYPE-A   *IND0000187*MME THOMAS MONIQUE               12 RUE DES ALPES                 1200 GENEVE                                                      99999SUISSE                     01 JANVIER 2024 TYPE-A                         00 00 00 00 00      INDIVIDUS NON RESIDENTS                                                                                                                                                         5900828788
KORE001     TYPE-A   *IND0000188*MME RICHARD FRANCOISE            CALLE MAYOR 15                   28001 MADRID                                                     99999ESPAGNE                    01 JANVIER 2024 TYPE-A                         00 00 00 00 00      INDIVIDUS NON RESIDENTS                                                                                                                                                         6910928889
KORE001     TYPE-A   *IND0000189*M   PETIT LOUIS                  15 RUE DE LA PAIX                1000 BRUXELLES                                                   99999BELGIQUE                   01 JANVIER 2024 TYPE-A                         00 00 00 00 00      INDIVIDUS NON RESIDENTS                                                                                                                                                         5921028990
KORE001     TYPE-A   *IND0000190*MME DURAND VERONIQUE             VIA ROMA 8                       00100 ROME                                                       99999ITALIE                     01 JANVIER 2024 TYPE-A                         00 00 00 00 00      INDIVIDUS NON RESIDENTS                                                                                                                                                         6931129091
KORE001     TYPE-A   *IND0000191*MME LAMBERT PATRICIA             HAUPTSTRASSE 22                  10115 BERLIN                                                     99999ALLEMAGNE                  01 JANVIER 2024 TYPE-A                         00 00 00 00 00      INDIVIDUS NON RESIDENTS                                                                                                                                                         5941229192
KORE001     TYPE-A   *IND0000192*M   FONTAINE CLAUDE              RUA DA LIBERDADE 45              1200 LISBONNE                                                    99999PORTUGAL                   01 JANVIER 2024 TYPE-A                         00 00 00 00 00      INDIVIDUS NON RESIDENTS                                                                                                                                                         6950129293
KORE001     TYPE-A   *IND0000193*MME ROUSSEAU VALERIE             12 AVENUE HASSAN II              20000 CASABLANCA                                                 99999MAROC                      01 JANVIER 2024 TYPE-A                         00 00 00 00 00      INDIVIDUS NON RESIDENTS                                                                                                                                                         5960229394
KORE001     TYPE-A   *IND0000194*MME VINCENT CORINNE              5 RUE DIDOUCHE MOURAD            16000 ALGER                                                      99999ALGERIE                    01 JANVIER 2024 TYPE-A                         00 00 00 00 00      INDIVIDUS NON RESIDENTS                                                                                                                                                         6970329495
KORE001     TYPE-A   *IND0000195*M   GAUTHIER RAYMOND             AVENUE BOURGUIBA 33              1000 TUNIS                                                       99999TUNISIE                    01 JANVIER 2024 TYPE-A                         00 00 00 00 00      INDIVIDUS NON RESIDENTS                                                                                                                                                         5980429596
KORE001     TYPE-A   *IND0000196*MME MOREL LAURE                  456 RUE SAINTE CATHERINE         MONTREAL QC H3B 1B2                                              99999CANADA                     01 JANVIER 2024 TYPE-A                         00 00 00 00 00      INDIVIDUS NON RESIDENTS                                                                                                                                                         6500529697
KORE001     TYPE-A   *IND0000197*MME GIRARD AGNES                 123 MAIN STREET                  NEW YORK NY 10001                                                99999ETATS UNIS                 01 JANVIER 2024 TYPE-A                         00 00 00 00 00      INDIVIDUS NON RESIDENTS                                                                                                                                                         5510629798
KORE001     TYPE-A   *IND0000198*M   ANDRE LUCA                   12 RUE DES ALPES                 1200 GENEVE                                                      99999SUISSE                     01 JANVIER 2024 TYPE-A                         00 00 00 00 00      INDIVIDUS NON RESIDENTS                                                                                                                                                         6520729800
KORE001     TYPE-A   *IND0000199*MME LEBLANC CECILE               CALLE MAYOR 15                   28001 MADRID                                                     99999ESPAGNE                    01 JANVIER 2024 TYPE-A                         00 00 00 00 00      INDIVIDUS NON RESIDENTS                                                                                                                                                         5530829901
KORE001     TYPE-A   *IND0000200*MME MERCIER CLAIRE               15 RUE DE LA PAIX                1000 BRUXELLES                                                   99999BELGIQUE                   01 JANVIER 2024 TYPE-A                         00 00 00 00 00      INDIVIDUS NON RESIDENTS                                                                                                                                                         
